:020000040000FA
:040000007EEF3FF060
:107EFC00000185EF3FF0939093829384120081EC04
:107F0C003FF0000E036E320E026E000E056E000E78
:107F1C00046E0450025C0350800A016E0550800A06
:107F2C000158D8A09CEF3FF09EEF3FF0A1EF3FF03F
:107F3C008A80A2EF3FF08A9081A2A7EF3FF0A9EFD1
:107F4C003FF0CAEF3FF081B4AEEF3FF0B0EF3FF03F
:107F5C00CAEF3FF003BEBEEF3FF0035007E1650EE2
:107F6C00025CD8B0BCEF3FF0BEEF3FF0E4EF3FF067
:107F7C00024A032A410E016EEE0EE82EFED7012EA8
:107F8C00FCD700D0E4EF3FF081B2CFEF3FF0D1EF60
:107F9C003FF0E4EF3FF081A4D6EF3FF0D8EF3FF095
:107FAC00E4EF3FF003BEDDEF3FF0DFEF3FF0E4EF37
:107FBC003FF00206D8A00306C0EF3FF0210E016E81
:107FCC00760EE82EFED7012EFCD700D0044A052AE7
:107FDC0005BEFAEF3FF0055009E1650E045CD8A030
:107FEC00FAEF3FF0FCEF3FF08FEF3FF08BEF3FF0FD
:047FFC0000EF00F0A2
:020000040020DA
:08000000FFFFFFFFFFFFFFFF00
:020000040030CA
:0E000000000C191EFF8080FF0FC00FE00F40A4
:00000001FF
