:020000040000FA
:040000007BEF3FF063
:107EF600000182EF3FF093909382938412007EEC10
:107F06003FF0000E036E960E026E000E056E000E1A
:107F1600046E0450025C0350800A016E0550800A0C
:107F26000158D8A099EF3FF09BEF3FF09EEF3FF04E
:107F36008A809FEF3FF08A9081A2A4EF3FF0A6EFE0
:107F46003FF0C7EF3FF081B4ABEF3FF0ADEF3FF04E
:107F5600C7EF3FF003BEBBEF3FF0035007E1FB0E58
:107F6600025CD8B0B9EF3FF0BBEF3FF0E8EF3FF06F
:107F7600024A032A410E016EEE0EE82EFED7012EAE
:107F8600FCD700D0E8EF3FF081B2CCEF3FF0CEEF68
:107F96003FF0E8EF3FF081A4D3EF3FF0D5EF3FF09D
:107FA600E8EF3FF003BEE1EF3FF0035009E1320E88
:107FB600025CD8A0E1EF3FF0E3EF3FF0E8EF3FF0DF
:107FC6000206D8A00306BDEF3FF0530EE82EFED7FB
:107FD60000F0044A052A05BEFAEF3FF0910E045C54
:107FE600010E0558D8A0FAEF3FF0FCEF3FF08CEFFA
:0A7FF6003FF088EF3FF000EF00F0CD
:020000040020DA
:08000000FFFFFFFFFFFFFFFF00
:020000040030CA
:0E000000000C191EFF8080FF0FC00FE00F40A4
:00000001FF
