:020000040000FA
:04000000C7EF3FF017
:107F8E000001CEEF3FF09390938293841200CAECDF
:107F9E003FF0000E036E000E026E03BEE2EF3FF0E6
:107FAE00035007E1330E025CD8B0E0EF3FF0E2EF92
:107FBE003FF0E5EF3FF08A80E6EF3FF08A90210E2A
:107FCE00016E760EE82EFED7012EFCD700D0024AA7
:107FDE00032A03BEFCEF3FF0035009E1650E025C7D
:107FEE00D8A0FCEF3FF0FEEF3FF0D4EF3FF000EFF4
:027FFE0000F091
:020000040020DA
:08000000FFFFFFFFFFFFFFFF00
:020000040030CA
:0E000000000C191EFF8080FF0FC00FE00F40A4
:00000001FF
