:020000040000FA
:0400000075EF3FF069
:107EEA0000017CEF3FF0939093829384120078EC28
:107EFA003FF0000E036E160E026E000E056E000EA7
:107F0A00046E0450025C0350800A016E0550800A18
:107F1A000158D8A093EF3FF095EF3FF098EF3FF06C
:107F2A008A8099EF3FF08A9081A29EEF3FF0A0EFFE
:107F3A003FF0C0EF3FF081B4A5EF3FF0A7EF3FF06D
:107F4A00C0EF3FF003BEB5EF3FF0035007E1330E39
:107F5A00025CD8B0B3EF3FF0B5EF3FF0B7EF3FF0B8
:107F6A00024A032A81A2BCEF3FF0BEEF3FF0E8EFDE
:107F7A003FF0B7EF3FF081B2C5EF3FF0C7EF3FF0F8
:107F8A00E8EF3FF081A4CCEF3FF0CEEF3FF0E8EF0F
:107F9A003FF003BEDAEF3FF0035009E1020E025C44
:107FAA00D8A0DAEF3FF0DCEF3FF0DFEF3FF0020658
:107FBA00D8A0030681A4E4EF3FF0E6EF3FF0E8EF34
:107FCA003FF0DFEF3FF0530EE82EFED700F0044AF1
:107FDA00052A05BEFAEF3FF0910E045C010E055822
:107FEA00D8A0FAEF3FF0FCEF3FF086EF3FF082EFC8
:067FFA003FF000EF00F073
:020000040020DA
:08000000FFFFFFFFFFFFFFFF00
:020000040030CA
:0E000000000C191EFF8080FF0FC00FE00F40A4
:00000001FF
